{
  "contractName": "TestToken",
  "abi": [
    {
      "inputs": [],
      "payable": false,
      "stateMutability": "nonpayable",
      "type": "constructor"
    },
    {
      "constant": true,
      "inputs": [],
      "name": "totalSupply",
      "outputs": [
        {
          "internalType": "uint256",
          "name": "",
          "type": "uint256"
        }
      ],
      "payable": false,
      "stateMutability": "view",
      "type": "function"
    }
  ],
  "bytecode": "0x6080604052348015600f57600080fd5b50620f42406000819055506084806100286000396000f3fe6080604052348015600f57600080fd5b506004361060285760003560e01c806318160ddd14602d575b600080fd5b60336049565b6040518082815260200191505060405180910390f35b6000548156fea265627a7a72315820fb89631c9ccebf34a76dbeef67d702792c23dffdaa77be10a7a22a9ac13bc95264736f6c63430005100032",
  "source": "// SPDX-License-Identifier: MIT\npragma solidity >=0.4.22 <0.9.0;\n\n\n\n// implements ERC20 specification\ncontract TestToken {\n    // state variables are variables that are visible to the entire contract\n    // every time we update this variable\n    // it will write the change to the blockchain\n    uint256 public totalSupply;\n\n    // constructor\n    constructor() public {\n        totalSupply = 1000000;\n    }\n\n    // set token count\n    // read number of tokens\n}",
  "sourcePath": "/Users/dayvonallen/Documents/ico/contracts/TestCoin.sol",
  "compiler": {
    "name": "solc",
    "version": "0.5.16+commit.9c3226ce.Emscripten.clang"
  },
  "schemaVersion": "3.3.4",
  "updatedAt": "2021-03-05T14:31:53.630Z",
  "networkType": "ethereum",
  "devdoc": {
    "methods": {}
  },
  "userdoc": {
    "methods": {}
  }
}